:020000040800F2
:1000000000000120492100088D17000895170008FD
:100010009D170008A5170008AD1700080000000094
:10002000000000000000000000000000B5170008FC
:10003000C317000800000000D1170008DF170008F0
:1000400099210008992100089921000899210008A8
:100050009921000899210008992100083D180008FD
:10006000992100089921000899210008ED1700083E
:100070009921000899210008011800089921000819
:10008000992100089921000899210008000000002A
:10009000000000000000000000000000992100089E
:1000A0009921000899210008992100089921000848
:1000B00029180008992100089921000899210008B1
:1000C0009921000899210008992100089921000828
:1000D00099210008992100089921000800000000DA
:1000E00099210008992100089921000800000000CA
:1000F000000000000000000000000000992100083E
:1001000000000000992100089921000899210008A9
:1001100000000000000000000000000000000000DF
:100120009921000899210008992100081518000854
:1001300099210008000000000000000000000000FD
:1001400000000000000000000000000099210008ED
:100150009921000899210008992100089921000897
:10016000992100089921000800000000000000000B
:10017000000000000000000000000000000000007F
:1001800000000000992100080000000000000000AD
:0401900099210008A9
:1001940010B5054C237833B9044B13B10448AFF3BD
:1001A40000800123237010BD140000200000000013
:1001B4003055000808B5034B1BB103490348AFF39E
:1001C400008008BD00000000180000203055000821
:1001D40053B94AB9002908BF00281CBF4FF0FF31AA
:1001E4004FF0FF3000F088B9ADF1080C6DE904CE92
:1001F40000F006F8DDF804E0DDE9022304B07047FE
:100204002DE9F047089D8E4604468846002B4AD1C6
:100214008A42174662D9B2FA82F64EB1C6F1200379
:1002240001FA06F820FA03F3B74043EA0808B44099
:100234004FEA174E1FFA87FCB8FBFEF1230C0EFBA6
:10024400118843EA084301FB0CF29A4209D9FB18CE
:1002540001F1FF3080F0EA809A4240F2E7800239EF
:100264003B449A1AA3B2B2FBFEF00EFB102243EAFF
:10027400024300FB0CFC9C4509D9FB1800F1FF323A
:1002840080F0D6809C4540F2D3803B44023840EA5B
:100294000140A3EB0C0300211DB1F3400022C5E98A
:1002A4000032BDE8F0878B4205D90DB1C5E90001E4
:1002B40000210846F5E7B3FA83F1002946D17345D6
:1002C40002D3824200F20581841A6EEB03020120FC
:1002D4009046002DE5D0C5E90048E2E7002A00F089
:1002E4009080B2FA82F6002E40F0A4808A1A030CA1
:1002F4004FEA174E80B2BCB20121B2FBFEFC0EFBEA
:100304001C2243EA024304FB0CF29A4207D9FB186D
:100314000CF1FF3802D29A4200F2E080C4469B1AE4
:10032400B3FBFEF20EFB123340EA034302FB04F478
:100334009C4207D9FB1802F1FF3002D29C4200F222
:10034400CA8002461B1B42EA0C40A5E7C1F1200605
:100354008B4022FA06F71F430EFA01F420FA06F343
:100364002EFA06FE4FEA1749234300FA01F81FFA52
:1003740087FCBEFBF9F01C0C09FB10EE44EA0E44AA
:1003840000FB0CFEA64502FA01F209D93C1900F162
:10039400FF3A80F09C80A64540F2998002383C44A4
:1003A400A4EB0E041FFA83FEB4FBF9F309FB134418
:1003B4004EEA044403FB0CFCA44508D93C1903F1A0
:1003C400FF3E80F08280A4457FD9023B3C4443EA4F
:1003D4000040A4EB0C04A0FB02EC64457346E14628
:1003E40062D35FD05DB1B8EB030264EB090404FA95
:1003F40006F622FA01F31E43CC40C5E9006400214D
:100404004FE7B1FBF2FC010C41EA0E4180B240EA35
:1004140001423B4638463C46B846BE462026B1FB20
:10042400F7F1A2EB080241EA0C4166E7014618E73E
:1004340010462CE7C6F120022EFA02F3B740B14071
:1004440020FA02F24FEA174E0A43B3FBFEF8BCB29D
:100454000EFB1833110C41EA034108FB04F9B040C8
:1004640089454FEA104380B23ED9791808F1FF3C20
:1004740001D289451FD8A1EB0901B1FBFEF909FBA3
:1004840004F80EFB191192B242EA0142424529D204
:10049400BA1809F1FF31C4D24245C2D2A9F102010E
:1004A4003A44BEE7F0459DD2BEEB02036CEB070C69
:1004B4000138E14696E7A7EB09094944A8F1020C83
:1004C400B1FBFEF909FB04F8DBE773467FE750460E
:1004D40066E70846FDE63B44023A33E7ACF1020C1A
:1004E4003B441CE749469CE7A1EB0901C446B1FB28
:1004F400FEF909FB04F8C4E7704700BF80B500AFFC
:1005040001221021164802F053FD01220121154851
:1005140002F04EFD01224FF48061124802F048FDC2
:1005240000224FF400410F4802F042FD0022042152
:100534000C4802F03DFD012001F0A0FE012204213F
:10054400084802F035FD012001F098FE0022042144
:10055400044802F02DFD052001F090FE00BF80BD8F
:10056400000002400004024080B584B000AF414B5B
:1005740000221A70404B00221A70404B1B681B6803
:100584001A683E4B1B681B6822F040021A603C4B01
:100594001B681B681A683A4B1B681B6822F04002F0
:1005A4001A600023BB60354B1B681B68DB68BB60AB
:1005B400324B1B681B689B68BB60BB6800237B6075
:1005C4002F4B1B681B68DB687B602D4B1B681B680B
:1005D4009B687B607B68294B1B681B681A68274BE8
:1005E4001B681B6842F040021A60254B1B681B689D
:1005F4001A68234B1B681B6842F040021A60214BA7
:100604001B78DBB2002B12D11C4B1B6804221E4941
:10061400184603F07FFE0346FB73194B1B68042244
:100624001A49184603F076FE0346BB7311E0134BD8
:100634001B6804221649184603F06CFE0346FB733C
:100644000F4B1B6804221349184603F063FE03464C
:10065400BB73FB7B002B02D1BB7B002B06D001229A
:1006640010210D4802F0A4FC00F040FA00BF10373E
:10067400BD4680BD3F000020400000203000002027
:1006840034000020480000204C0000205C000020C2
:1006940054000020640000200000024080B485B0B3
:1006A40000AF03460A46FB711346BB71FB79002B6E
:1006B40001D12B4B00E02B4BFB60FB79002B01D1CC
:1006C400294B00E0294BBB60BB79FA68128891B2D0
:1006D400274A22F81310FB689A1CBB79013312884D
:1006E40091B2234A22F81310FB681A1DBB79023316
:1006F400128891B21E4A22F81310FB689A1DBB7926
:100704000333128891B21A4A22F81310BB790433C6
:10071400BA68128891B2164A22F81310BB689A1C60
:10072400BB790533128891B2114A22F81310BB68C1
:100734001A1DBB790633128891B20D4A22F81310A0
:10074400BB689A1DBB790733128891B2084A22F814
:10075400131000BF1437BD465DF8047B704700BF1B
:100764004C000020540000205C00002064000020A5
:100774006C00002080B485B000AF78607B68DE2216
:1007840083F820207B68AD2283F821207B68BE2279
:1007940083F822207B68EF2283F823200023FB6068
:1007A4001FE07B68FA6833F812301B0A9AB2FB68C0
:1007B40002335B00D1B27A6813440A4683F82020DE
:1007C4007B68FA6833F81220FB6802335B0001335C
:1007D400D1B27A6813440A4683F82020FB680133B7
:1007E400FB60FB680F2BDCDD044B1A687B685A64E2
:1007F40000BF1437BD465DF8047B704744000020F9
:1008040080B582B000AF254B1B78DBB2002B01D141
:10081400234B00E0234B3B60234B1B78DBB2002BC4
:1008240004D0224B1B680133204A136000237B60F1
:1008340015E039687A681346DB0013449B00C81836
:100844007A681346DB001344DB002033184A134450
:100854002422194604F05CFE7B6801337B607B68CC
:100864001F2BE6DD134B1A683B68C3F88024124B38
:100874001A683B68C3F88424104A3B681360074B2A
:100884001B78DBB283F00103DAB2044B1A70064B17
:1008940001221A7000BF0837BD4680BDC81200206F
:1008A400B8090020400E0020D0120020D8120020E9
:1008B400B4000020D412002044000020CC120020F8
:1008C40080B584B000AFF860B9607A60344AFB68E0
:1008D4001360344ABB681360334A7B681360FFF7C4
:1008E4000DFE08220021314804F0E6FD0822002113
:1008F4002F4804F0E1FD082200212E4804F0DCFD1D
:10090400082200212C4804F0D7FD482200212B485E
:1009140004F0D2FD4FF410620021294804F0CCFD0C
:100924004FF491620021274804F0C6FD4FF4916210
:100934000021254804F0C0FD244B00221A70244BEA
:1009440000221A70234B00221A70234B00221A70C3
:10095400224B00221A70224B00221A70214B0022D3
:100964001A70214B00221A70204B00221A60204B6F
:1009740000221A601F4B00221A601F4B00221A60CB
:100984001E4B00221A601E4B00221A601D4B0022CF
:100994001A601D4B01221A7000BF1037BD4680BD7E
:1009A4003000002034000020380000204C000020DB
:1009B400540000205C000020640000206C00002033
:1009C400B4000020B8090020400E00203D000020A3
:1009D4003E000020480000203F000020400000208E
:1009E400B4090020C8120020D0120020CC1200202C
:1009F40044000020D4120020D8120020DC12002071
:100A0400E0120020E41200203C00002080B500AF7A
:100A1400074B1B78DBB2012B08D1054B02221A705D
:100A2400044B1B68184604F063F900E000BF80BD66
:100A34003C0000203800002080B400AF034B1B783A
:100A4400DBB21846BD465DF8047B7047D012002027
:100A540080B584B000AF78607B68002B13D072B689
:100A640000BF0C4B1B68FB600B4B00221A7062B674
:100A740000BFFB68002B08D04FF49162F9687868D6
:100A840004F046FD02E000BF00E000BF1037BD46A1
:100A940080BD00BFCC120020D012002080B400AF73
:100AA400034B1B681846BD465DF8047B704700BFC6
:100AB400D412002080B483B000AF0346FB80B7F9A2
:100AC40006301A4641F2883302FB03F3064A82FBDE
:100AD40003121A449213DB17D31A18460C37BD4677
:100AE4005DF8047B704700BF0300018080B400AF51
:100AF4000A4B1B680133094A1360094B00221A7020
:100B0400084B00221A70084B00221A70074B00226F
:100B14001A7000BFBD465DF8047B7047E4120020E4
:100B24003D0000203E0000203F0000204000002047
:100B340080B500AF1E4B1B78DBB2022B35D11D4BA9
:100B44001B6801331B4A13601B4B1B78DBB2002B61
:100B540004D01A4B1B680133184A1360164B002249
:100B64001A70174B00221A7000224FF48061154846
:100B740002F01EFA00224FF40041124802F018FA63
:100B8400002201210F4802F013FA00BF00BF00BF8A
:100B940000BF012201210B4802F00AFA01224FF49E
:100BA4000041084802F004FA00E000BF80BD00BF25
:100BB4003C000020440000203D000020DC12002006
:100BC4003E0000200004024080B500AF194B1B78A2
:100BD400DBB2022B2BD1184B1B78DBB20133DAB218
:100BE400154B1A70144B1B78DBB2012B07D1002272
:100BF4001021124802F0DCF9FFF7B6FC18E00E4BA6
:100C04001B78DBB2022B13D10D4B1B78DBB2012B0B
:100C140005D00C4B1B6801330A4A136008E000221C
:100C24001021064802F0C4F9FFF79EFC00E000BF63
:100C340080BD00BF3C0000203D00002000000240B9
:100C44003E000020E012002080B584B000AF786040
:100C5400574B1B78DBB2022B40F09F807B681B68EC
:100C6400544A934203D1544B01221A7008E07B6822
:100C74001B68524A934240F09280514B01221A70F1
:100C84004D4B1B78DBB2002B00F08B804C4B1B7858
:100C9400DBB2002B00F0858001221021494802F0CC
:100CA40087F9494B1B78DBB2002B7CD0464B1B7871
:100CB400DBB2012B2DD1454B1B78BB73434B1B7807
:100CC400DBB283F00103DAB2404B1A70BB7B002124
:100CD4001846FFF7E3FC3E4B01221A700022012163
:100CE4003C4802F065F900BF00BF00BF00BF01220D
:100CF4000121384802F05CF901224FF48061354843
:100D040002F056F900224FF40041324802F050F943
:100D14004AE02D4B1B78DBB2022B45D12B4B1B78C1
:100D2400FB732A4B1B78DBB283F00103DAB2274B47
:100D34001A70FB7B08211846FFF7B0FC2648FFF722
:100D440019FD264B1B78DBB21A461346DB0013440D
:100D5400DB00234A134448221F49184604F0D8FBF9
:100D6400204B1B6801331F4A13601C4B1B78DBB2FA
:100D74000133DAB2194B1A70184B1B78DBB21F2BF4
:100D840004D9FFF73DFD154B00221A70104B0022C9
:100D94001A700D4B00221A7006E000BF04E000BF79
:100DA40002E000BF00E000BF1037BD4680BD00BFB9
:100DB4003C000020003800403F000020003C004080
:100DC40040000020000002403D00002048000020B8
:100DD4003E000020000402406C000020B409002002
:100DE400B4000020D4120020B0B58EB000AF01F0E2
:100DF400D3F9002200214FF0FF3001F03EFB00F058
:100E0400A7F800F03DFA00F0FDF900F009F900F050
:100E14003DF900F073F900F0A9F9454B3C461D4635
:100E24000FCD0FC495E8070003C422803B46184643
:100E340000F0ECFF4FF4645000F07CFD0346042BFB
:100E440001D000F0DDFA01F027F80346002B01D0B1
:100E540000F0D6FA374A38493848FFF731FDFFF732
:100E6400D5FDFFF7E9FD0346002B53D03448FFF7C7
:100E7400EFFD00237B632FE07A6B1346DB00134402
:100E84009B001A462E4B1344BB62BB6A04337B623D
:100E940000233B631AE03B6B5B001A467B6A1344F6
:100EA4001B781BB21B021AB23B6B5B000133796ADD
:100EB4000B441B781BB213431BB27B847B8C1846F8
:100EC400FFF7F8FDF8613B6B01333B633B6B0F2B82
:100ED400E1DD7B6B01337B637B6B1F2BCCD94FF440
:100EE4009061174801F064F8034687F82F3097F8AB
:100EF4002F30012BF3D097F82F30002B05D1114B55
:100F04001B6801330F4A136004E00F4B1B68013365
:100F14000D4A1360FFF7C2FD0346C3F30B03002B16
:100F24009FD14FF40051094802F05BF899E700BFE4
:100F34004855000850140020F8130020A013002086
:100F440058150020E0190020E41900200008024090
:100F540080B594B000AF07F1200330220021184679
:100F640004F0AAFA07F10C0300221A605A609A608E
:100F7400DA601A610023BB60274B1B6C264A43F0DE
:100F840080531364244B1B6C03F08053BB60BB6819
:100F940000237B60214B1B68204A43F440431360C9
:100FA4001E4B1B6803F440437B607B6801233B6258
:100FB4004FF480337B620223BB634FF48003FB63F3
:100FC40019233B6480237B640223BB640423FB64F6
:100FD40007F12003184602F037F80346002B01D02E
:100FE40000F00EFA0F23FB6002233B6100237B61B8
:100FF4004FF48053BB610023FB6107F10C03022112
:10100400184602F099FA0346002B01D000F0F8F9D3
:1010140000BF5037BD4680BD00380240007000401C
:1010240080B500AF174B184A1A60164B4FF4827202
:101034005A60144B00229A60124B0022DA60114B62
:1010440000221A610F4B00225A610E4B4FF40072BA
:101054009A610C4B0022DA610A4B00221A62094B96
:1010640000225A62074B00229A62064B0A22DA6275
:10107400044802F00DFC0346002B01D000F0C0F937
:1010840000BF80BDE81200200030014080B500AFF1
:10109400184B194A1A60174B4FF482725A60154B59
:1010A4004FF480629A60134B4FF40062DA60114B84
:1010B40000221A610F4B00225A610E4B4FF400724A
:1010C4009A610C4B0022DA610A4B00221A62094B26
:1010D40000225A62074B00229A62064B0A22DA6205
:1010E400044802F0D5FB0346002B01D000F088F938
:1010F40000BF80BDA01300200038004080B500AFC1
:10110400184B194A1A60174B4FF482725A60154BE8
:101114004FF480629A60134B4FF40062DA60114B13
:1011240000221A610F4B00225A610E4B4FF40072D9
:101134009A610C4B0022DA610A4B00221A62094BB5
:1011440000225A62074B00229A62064B0A22DA6294
:10115400044802F09DFB0346002B01D000F050F937
:1011640000BF80BDF8130020003C004080B586B06D
:1011740000AF07F1080300221A605A609A60DA602F
:101184003B4600221A605A601D4B4FF080421A60A1
:101194001B4B00225A601A4B00229A60184B40F2F3
:1011A4003452DA60164B00221A61154B00229A6100
:1011B400134803F04DFD0346002B01D000F020F945
:1011C4004FF48053BB6007F1080319460C4803F041
:1011D400E1FE0346002B01D000F012F900233B602E
:1011E40000237B603B461946054804F0E3F80346B8
:1011F400002B01D000F004F900BF1837BD4680BDB4
:101204005014002080B582B000AF00237B601B4BDC
:101214001B6B1A4A43F400131363184B1B6B03F440
:1012240000137B607B6800233B60144B1B6B134AE9
:1012340043F480031363114B1B6B03F480033B6083
:101244003B68002201210E2001F017F90E2001F065
:1012540030F9002201210B2001F00FF90B2001F0DD
:1012640028F9002206213B2001F007F93B2001F078
:1012740020F900BF0837BD4680BD00BF00380240DA
:1012840080B58AB000AF07F1140300221A605A60D7
:101294009A60DA601A6100233B61554B1B6B544A18
:1012A40043F001031363524B1B6B03F001033B61D7
:1012B4003B690023FB604E4B1B6B4D4A43F002031A
:1012C40013634B4B1B6B03F00203FB60FB680023AF
:1012D400BB60474B1B6B464A43F004031363444B08
:1012E4001B6B03F00403BB60BB6800237B60404BB3
:1012F4001B6B3F4A43F0800313633D4B1B6B03F0AE
:1013040080037B607B68012210213A4801F050FE83
:1013140001220121384801F04BFE00220421364805
:1013240001F046FE01224FF48061334801F040FE93
:1013340000224FF40041304801F03AFE01224FF4FC
:1013440080712C4801F034FE012220212A4801F04A
:101354002FFE01224FF40051284801F029FE4FF4DA
:1013640088737B610123BB610023FB6102233B6221
:1013740007F1140319461F4801F096FC48F225436F
:101384007B610123BB610023FB6102233B6207F104
:1013940014031946184801F087FC02237B614FF4BB
:1013A4000413BB610223FB6102233B6207F11403B4
:1013B4001946114801F078FC4FF400537B61012376
:1013C400BB610023FB6100233B6207F11403194650
:1013D4000A4801F069FC00220221072001F04DF8BF
:1013E400072001F066F800BF2837BD4680BD00BF66
:1013F400003802400000024000040240000802409D
:1014040080B500AF72B600BF00224FF4005102480D
:1014140001F0CEFD00BFFDE70008024080B483B0B8
:1014240000AF00237B60104B5B6C0F4A43F4804396
:1014340053640D4B5B6C03F480437B607B68002337
:101444003B60094B1B6C084A43F080531364064B02
:101454001B6C03F080533B603B6800BF0C37BD46F8
:101464005DF8047B704700BF0038024080B58EB041
:1014740000AF786007F1240300221A605A609A6072
:10148400DA601A617B681B68A04A934265D1002325
:101494003B629F4B5B6C9E4A43F4805353649C4B6A
:1014A4005B6C03F480533B623B6A0023FB61984B03
:1014B4001B6B974A43F001031363954B1B6B03F0BB
:1014C4000103FB61FB69E0237B620223BB6200230F
:1014D400FB6203233B6305237B6307F12403194663
:1014E4008C4801F0E1FB8C4B8C4A1A608A4B4FF01C
:1014F400C0625A60884B40229A60874B0022DA60AF
:10150400854B4FF480621A61834B00225A61824BEF
:1015140000229A61804B0022DA617F4B4FF4403203
:101524001A627D4B04225A627B4B03229A627A4BE5
:101534004FF40002DA62784B00221A63764800F016
:10154400D3FF0346002B01D0FFF75AFF7B68724A92
:101554009A64714A7B689363D3E07B681B68704A22
:10156400934265D10023BB61694B1B6C684A43F409
:1015740080431364664B1B6C03F48043BB61BB69FB
:1015840000237B61624B1B6B614A43F002031363CC
:101594005F4B1B6B03F002037B617B694FF4C04319
:1015A4007B620223BB620023FB6203233B630523AC
:1015B4007B6307F1240319465A4801F075FB5A4B23
:1015C4005A4A1A60584B00225A60574B00229A60BC
:1015D400554B0022DA60544B4FF480621A61524B2F
:1015E4004FF400625A61504B4FF400529A614E4BD3
:1015F4000022DA614C4B4FF440321A624A4B00220B
:101604005A62494800F070FF0346002B01D0FFF7EF
:10161400F7FE7B68444ADA64434A7B68936300229A
:1016240001210E2000F029FF0E2000F042FF68E0A7
:101634007B681B683E4A934263D100233B61344B71
:101644001B6C334A43F400431364314B1B6C03F4A7
:1016540000433B613B690023FB602D4B1B6B2C4A11
:1016640043F0020313632A4B1B6B03F00203FB607A
:10167400FB6818237B620223BB620023FB62032303
:101684003B6306237B6307F124031946254801F0D5
:101694000BFB284B284A1A60264B00225A60254B24
:1016A40000229A60234B0022DA60224B4FF48062BE
:1016B4001A61204B4FF400625A611E4B4FF40052E2
:1016C4009A611C4B0022DA611A4B4FF440321A62C1
:1016D400184B00225A62174800F006FF0346002BFD
:1016E40001D0FFF78DFE7B68124ADA64114A7B68E9
:1016F4009363002201210B2000F0BFFE0B2000F0B9
:10170400D8FE00BF3837BD4680BD00BF0030014061
:101714000038024000000240401300205864024098
:101724000038004000040240981400205860024031
:10173400003C0040F81400201060024080B584B0E2
:1017440000AF78607B681B68B3F1804F15D100232C
:10175400FB600C4B1B6C0B4A43F001031364094BF5
:101764001B6C03F00103FB60FB68002203211C20B7
:1017740000F083FE1C2000F09CFE00BF1037BD4625
:1017840080BD00BF0038024080B400AF00BFFDE759
:1017940080B400AF00BFFDE780B400AF00BFFDE739
:1017A40080B400AF00BFFDE780B400AF00BFFDE729
:1017B40080B400AF00BFBD465DF8047B704780B4C1
:1017C40000AF00BFBD465DF8047B704780B400AF36
:1017D40000BFBD465DF8047B704780B500AF00F0E4
:1017E4002DFD00BF80BD000080B500AF024800F0B1
:1017F400F1FF00BF80BD00BFF814002080B500AF2A
:10180400024800F0E7FF00BF80BD00BF981400202D
:1018140080B500AF024800F0DDFF00BF80BD00BF0F
:101824004013002080B500AF024803F0C3FA00BFA4
:1018340080BD00BF5014002080B500AF022001F02D
:10184400EBFB00BF80BD80B582B000AF78607B68E1
:101854001B68B3F1804F01D1FFF76AF900BF083765
:10186400BD4680BD80B582B000AF0346FB80FB88D7
:10187400022B01D1FFF7A8F900BF0837BD4680BD90
:1018840080B582B000AF78607868FFF7DDF900BFFB
:101894000837BD4680BD000080B582B000AF7860D7
:1018A4007B681B68044A934201D100F017FC00BF17
:1018B4000837BD4680BD00BF0030014080B582B00E
:1018C40000AF78607B681B680C4A934204D07B6845
:1018D4001B680B4A93420CD10A4802F0DBFE0A480B
:1018E40002F0D8FE01221021084801F061FBFFF745
:1018F400FDF800BF0837BD4680BD00BF003800407A
:10190400003C0040A0130020F81300200000024017
:1019140080B400AF064BD3F88830054A43F4700313
:10192400C2F8883000BFBD465DF8047B704700BF35
:1019340000ED00E080B584B000AF7860224B1B68F6
:101944009847214B9B6898471F4BDB69002B03D0BA
:101954001D4B9B69002B14D11B4B1B697A68120C1D
:10196400D2B210469847184B1B697A68120AD2B251
:1019740010469847144B1B697A68D2B210469847B0
:1019840011E07B681B0CDBB23B737B681B0ADBB288
:101994007B737B68DBB2BB730B4B9B6907F10C0257
:1019A400032110469847084B5B6998470346FB732D
:1019B400054BDB689847044B5B689847FB7B1846EC
:1019C4001037BD4680BD00BFE819002080B584B043
:1019D40000AF78600B46FB70224B1B689847214B85
:1019E4009B6898477B6843F004037B601D4B9B69AD
:1019F400002B19D11B4B1B697A68120CD2B210460A
:101A04009847184B1B697A68120AD2B21046984755
:101A1400144B1B697A68D2B210469847114B1B6964
:101A2400FA781046984713E07B681B0CDBB23B73D3
:101A34007B681B0ADBB27B737B68DBB2BB73FB780E
:101A4400FB73084B9B6907F10C020421104698476D
:101A5400044BDB689847034B5B68984700BF10371B
:101A6400BD4680BDE819002080B586B000AFF8609F
:101A7400B9601346FB802B4B1B689847294B9B6826
:101A84009847FB6843F00403FB60264B9B69002BDB
:101A940026D1244B1B69FA68120CD2B2104698471F
:101AA400204B1B69FA68120AD2B2104698471D4BA4
:101AB4001B69FA68D2B2104698470023FB820AE0F9
:101AC400184B1B69FA8AB9680A4412781046984779
:101AD400FB8A0133FB82FA8AFB889A42F0D317E02F
:101AE400FB681B0CDBB23B74FB681B0ADBB27B7428
:101AF400FB68DBB2BB740B4B9B6907F1100203213B
:101B040010469847074B9B69FA881146B86898476E
:101B1400044BDB689847034B5B68984700BF183752
:101B2400BD4680BDE819002080B500AF00224FF407
:101B34008071024801F03CFA00BF80BD0000024001
:101B440080B500AF01224FF48071024801F030FAF1
:101B540000BF80BD0000024080B582B000AF0346E4
:101B6400FB71F91D0A230122034801F01AFF00BF8B
:101B74000837BD4680BD00BFE812002080B582B0A2
:101B840000AF0023FB71F91D0A230122034802F070
:101B94004CF8FB7918460837BD4680BDE812002092
:101BA40080B582B000AF78600B467B807A883223A0
:101BB4007968034801F0F5FE00BF0837BD4680BDD3
:101BC400E812002080B582B000AF78600B467B80BD
:101BD4007A8832237968034802F027F800BF08376F
:101BE400BD4680BDE812002080B400AF72B600BFCD
:101BF40000BFBD465DF8047B704780B400AF62B699
:101C040000BF00BFBD465DF8047B704780B500AFE0
:101C1400202200210E4803F04FFC0D4B0D4A1A60A0
:101C24000B4B0D4A5A600A4B0C4A9A60084B0C4AFB
:101C3400DA60074B0B4A1A61054B0B4A5A61044B95
:101C44000A4A9A61024B0A4ADA6100BF80BD00BFAA
:101C5400E8190020ED1B0008FF1B00082D1B0008DD
:101C6400451B00085D1B0008811B0008A51B00081C
:101C7400C91B000880B500AF002220210B4801F0E9
:101C840097F9012000F0FAFA01222021074801F017
:101C94008FF9372000F0F2FA80210020FFF796FE3A
:101CA400052000F0EBFA00BF80BD00BF0004024035
:101CB40080B500AF062214494FF41060FFF7D4FE3C
:101CC400042212494FF48070FFF7CEFE042210491B
:101CD4004FF4A060FFF7C8FE04220E494FF4706071
:101CE400FFF7C2FE07214FF4C850FFF76FFED02163
:101CF4004FF4D050FFF76AFE08214FF4D850FFF795
:101D040065FE00BF80BD00BF081A0020161A00201F
:101D1400121A00200E1A002080B582B000AF0346CC
:101D2400FB80FB881B0A9BB2DAB20E4BDA70FB888D
:101D3400DAB20C4B1A7100224FF480710A4801F098
:101D440037F9052305220749084801F02AFE012234
:101D54004FF48071044801F02BF900BF0837BD46E9
:101D640080BD00BF0400002000000240E8120020F3
:101D740080B582B000AF0023FB7000F073FA034615
:101D84000A337B6000224FF480711C4801F010F983
:101D9400052303221A491B4801F003FEF91C0523FD
:101DA4000122184801F041FF01224FF480711348C9
:101DB40001F0FEF800F056FA02467B68934205D320
:101DC400FB7803F01003002BDCD000E000BF0022FE
:101DD4004FF48071094801F0EBF8052304220A4905
:101DE400084801F0DEFD01224FF48071034801F040
:101DF400DFF800BF0837BD4680BD00BF00000240C9
:101E040080550008E812002084550008B0B582B05F
:101E140000AF78607B68002B2DD0194A7B6814468C
:101E24001D4628686968AA68EB680FC4286969694F
:101E340003C42B8B2380134B00221A60124B002205
:101E44001A70124B00221A70114B00221A8040F6AD
:101E5400061200210F4803F02FFB0E4B14229A7038
:101E64000C4B142283F88524FFF7D0FEFFF702FF02
:101E7400FFF71EFF00E000BF0837BD46B0BD00BF3E
:101E8400081A0020241A0020281A002032230020D7
:101E9400342300202C1A002090B585B000AF102107
:101EA4004FF48470FFF792FD052000F0E7F910214C
:101EB40041F60870FFF78AFD002141F60860FFF73C
:101EC40085FD02210820FFF781FD354A3B1D92E87C
:101ED40003001860043319803B1D062219464FF491
:101EE400C160FFF7C1FD04222E4940F60840FFF708
:101EF400BBFD2D4BDB8A1B0A9BB2DBB2194641F2B8
:101F04000800FFF763FD284BDB8ADBB2194641F278
:101F14000810FFF75BFD244B1B8B1B0A9BB2DBB243
:101F240019464FF48160FFF751FD1F4B1B8BDBB249
:101F340019464FF4A160FFF749FD01214FF4847065
:101F4400FFF744FD00F08EF903460A33FB604FF4BB
:101F54004270FFF7EFFC0346FB72FB7A222B05D09D
:101F640000F080F90246FB689342F0D842F2084040
:101F7400FFF7E0FC03461B029CB242F20850FFF755
:101F8400D9FC034623449AB2084B1A80FB7A222BCD
:101F940001D1002300E0032318461437BD4690BD49
:101FA400645500081A1A0020081A0020342300205F
:101FB40080B584B000AF78600B467B807B68002BD3
:101FC40003D07B88B3F5906F01D0042373E03C4BBE
:101FD4001B78DBB2012B04D0394B1B78DBB2022B0C
:101FE40006D1384B1B680133364A1360012362E083
:101FF400334B1B78DBB2032B04D1FFF7B9FE304B14
:1020040000221A70304B1B78FB732F4B1B7883F024
:102014000103DAB22C4B1A702C4B1B88C3F30D034B
:10202400BB81BB891B0A9AB2FB7BD0B2284A40F21F
:10203400834101FB03F3134402461A70FB7BBA8904
:10204400D0B2234A40F2834101FB03F3134401332A
:1020540002461A70FB7B40F2834202FB03F31C4AE4
:10206400134403334FF490627968184603F050FA2E
:10207400164B1B8803F590637B817B891846FFF719
:102084004BFE124A7B8913800D4B01221A700022E9
:102094004FF480710F4800F08BFFFB7B40F28342CA
:1020A40002FB03F30A4A134440F2834219460A48E6
:1020B40002F07EF8002318461037BD4680BD00BFED
:1020C400281A0020241A0020322300203423002060
:1020D4002C1A002000000240E812002080B500AF56
:1020E400144B1B78DBB2012B14D101224FF4807105
:1020F400114800F05DFF0F4B02221A7000224FF4CA
:1021040080710D4800F054FF04220C490C4802F081
:102114004FF80DE0074B1B78DBB2022B08D10122EC
:102124004FF48071044800F043FF024B03221A70FD
:1021340000BF80BD281A0020000002407C55000822
:10214400E8120020DFF834D0FFF7E2FB0C480D4919
:102154000D4A002302E0D458C4500433C4188C42FE
:10216400F9D30A4A0A4C002301E013600432A24264
:10217400FBD303F0A9F9FEF737FE704700000120F6
:102184000000002014000020A055000814000020C6
:102194003C230020FEE7000080B500AF0E4B1B6817
:1021A4000D4A43F4007313600B4B1B680A4A43F453
:1021B40080631360084B1B68074A43F48073136001
:1021C400032000F04FF90F2000F008F8FFF726F97C
:1021D4000023184680BD00BF003C024080B582B099
:1021E40000AF7860124B1A68124B1B7819464FF4F3
:1021F4007A73B3FBF1F3B2FBF3F3184600F067F91B
:102204000346002B01D001230EE07B680F2B0AD874
:10221400002279684FF0FF3000F02FF9064A7B68FE
:102224001360002300E0012318460837BD4680BD33
:1022340000000020100000200C00002080B400AF3B
:10224400064B1B781A46064B1B681344044A13605A
:1022540000BFBD465DF8047B704700BF100000203E
:102264003823002080B400AF034B1B681846BD46DA
:102274005DF8047B704700BF3823002080B584B02C
:1022840000AF7860FFF7EEFFB8607B68FB60FB6827
:10229400B3F1FF3F05D00A4B1B781A46FB68134481
:1022A400FB6000BFFFF7DEFF0246BB68D31AFA6883
:1022B4009A42F7D800BF00BF1037BD4680BD00BFAB
:1022C4001000002080B485B000AF78607B6803F014
:1022D4000703FB600C4BDB68BB60BA684FF6FF0377
:1022E4001340BB60FB681A02BB68134343F0BF632F
:1022F40043F40033BB60044ABB68D36000BF1437A7
:10230400BD465DF8047B704700ED00E080B400AF8B
:10231400044BDB681B0A03F007031846BD465DF84F
:10232400047B704700ED00E080B483B000AF034647
:10233400FB7197F90730002B0BDBFB7903F01F02CD
:10234400074997F907305B09012000FA02F241F8C6
:10235400232000BF0C37BD465DF8047B704700BFE7
:1023640000E100E080B483B000AF03463960FB7144
:1023740097F90730002B0ADB3B68DAB20C4997F96E
:1023840007301201D2B20B4483F800230AE03B6801
:10239400DAB20849FB7903F00F03043B1201D2B20D
:1023A4000B441A7600BF0C37BD465DF8047B7047BA
:1023B40000E100E000ED00E080B489B000AFF86017
:1023C400B9607A60FB6803F00703FB61FB69C3F142
:1023D4000703042B28BF0423BB61FB690433062BCA
:1023E40002D9FB69033B00E000237B614FF0FF321D
:1023F400BB6902FA03F3DA43BB681A407B699A406B
:102404004FF0FF317B6901FA03F3D9437B680B403A
:10241400134318462437BD465DF8047B704700001B
:1024240080B582B000AF78607B68013BB3F1807FF8
:1024340001D301230FE00A4A7B68013B53600F215B
:102444004FF0FF30FFF78EFF054B00229A60044BDC
:1024540007221A60002318460837BD4680BD00BF16
:1024640010E000E080B582B000AF78607868FFF7D4
:1024740029FF00BF0837BD4680BD80B586B000AFD8
:102484000346B9607A60FB7300237B61FFF73EFF6C
:1024940078617A68B9687869FFF78EFF024697F920
:1024A4000F3011461846FFF75DFF00BF1837BD46D1
:1024B40080BD80B582B000AF0346FB7197F9073049
:1024C4001846FFF731FF00BF0837BD4680BD80B511
:1024D40082B000AF78607868FFF7A2FF0346184621
:1024E4000837BD4680BD000080B586B000AF786077
:1024F40000237B61FFF7B6FE38617B68002B01D1B6
:10250400012399E07B68022283F835207B6800224E
:1025140083F834207B681B681A687B681B6822F088
:1025240001021A600FE0FFF79DFE02463B69D31AD1
:10253400052B08D97B6820225A657B68032283F81F
:102544003520032378E07B681B681B6803F00103D4
:10255400002BE8D17B681B681B687B617A69384B68
:1025640013407B617B685A687B689B681A437B686D
:10257400DB681A437B681B691A437B685B691A43EF
:102584007B689B691A437B68DB691A437B681B6A17
:1025940013437A6913437B617B685B6A042B07D11D
:1025A4007B68DA6A7B681B6B13437A6913437B612C
:1025B4007B681B687A691A607B681B685B697B614E
:1025C4007B6923F007037B617B685B6A7A69134349
:1025D4007B617B685B6A042B17D17B689B6A7A6991
:1025E40013437B617B68DB6A002B0ED0786800F0B4
:1025F400DFFA0346002B08D07B6840225A657B68CB
:10260400012283F83520012316E07B681B687A6970
:102614005A61786800F096FA0346FB607B68DB6DCC
:102624003F229A40FB689A607B6800225A657B6867
:10263400012283F83520002318461837BD4680BD93
:102644003F8010F080B586B000AFF860B9607A6062
:102654003B600023FB75FB689B6D3B61FB6893F853
:102664003430012B01D1022340E0FB68012283F8BE
:102674003420FB6893F83530DBB2012B2FD1FB6893
:10268400022283F83520FB6800225A653B687A6889
:10269400B968F86800F028FAFB68DB6D3F229A40BD
:1026A4003B699A60FB681B681A68FB681B6842F008
:1026B40016021A60FB681B6C002B07D0FB681B68B2
:1026C4001A68FB681B6842F008021A60FB681B6802
:1026D4001A68FB681B6842F001021A6005E0FB6897
:1026E400002283F834200223FB75FB7D184618373B
:1026F400BD4680BD80B584B000AF78607B689B6DBB
:10270400FB60FFF7AFFDB8607B6893F83530DBB250
:10271400022B08D07B6880225A657B68002283F8EC
:102724003420012352E07B681B681A687B681B68AD
:1027340022F016021A607B681B685A697B681B6862
:1027440022F080025A617B681B6C002B03D17B68EA
:102754009B6C002B07D07B681B681A687B681B681E
:1027640022F008021A607B681B681A687B681B6881
:1027740022F001021A6013E0FFF774FD0246BB6801
:10278400D31A052B0CD97B6820225A657B68032257
:1027940083F835207B68002283F83420032315E076
:1027A4007B681B681B6803F00103002BE4D17B6882
:1027B400DB6D3F229A40FB689A607B68012283F8B4
:1027C40035207B68002283F8342000231846103714
:1027D400BD4680BD80B586B000AF78600023BB6085
:1027E4008E4B1B688E4AA2FB03239B0A7B617B688A
:1027F4009B6D3B613B691B68FB607B68DB6D08225A
:102804009A40FB681340002B1AD07B681B681B6836
:1028140003F00403002B13D07B681B681A687B68E1
:102824001B6822F004021A607B68DB6D08229A4060
:102834003B699A607B685B6D43F001027B685A6573
:102844007B68DB6D01229A40FB681340002B12D099
:102854007B681B685B6903F08003002B0BD07B68EB
:10286400DB6D01229A403B699A607B685B6D43F0A3
:1028740002027B685A657B68DB6D04229A40FB6820
:102884001340002B12D07B681B681B6803F0020303
:10289400002B0BD07B68DB6D04229A403B699A6065
:1028A4007B685B6D43F004027B685A657B68DB6D73
:1028B40010229A40FB681340002B43D07B681B68AE
:1028C4001B6803F00803002B3CD07B68DB6D1022EF
:1028D4009A403B699A607B681B681B6803F48023F9
:1028E400002B18D07B681B681B6803F40023002BA3
:1028F40008D17B681B6C002B24D07B681B6C786828
:1029040098471FE07B689B6C002B1BD07B689B6CFB
:102914007868984716E07B681B681B6803F480732B
:10292400002B07D17B681B681A687B681B6822F040
:1029340008021A607B681B6C002B03D07B681B6C3D
:10294400786898477B68DB6D20229A40FB681340C7
:10295400002B00F08F807B681B681B6803F010035A
:10296400002B00F087807B68DB6D20229A403B6956
:102974009A607B6893F83530DBB2052B36D17B68DF
:102984001B681A687B681B6822F016021A607B6851
:102994001B685A697B681B6822F080025A617B6855
:1029A4001B6C002B03D17B689B6C002B07D07B68CE
:1029B4001B681A687B681B6822F008021A607B682F
:1029C400DB6D3F229A403B699A607B68012283F861
:1029D40035207B68002283F834207B681B6D002B34
:1029E4007ED07B681B6D7868984779E07B681B68AC
:1029F4001B6803F48023002B1DD07B681B681B68B5
:102A040003F40023002B0DD17B685B6C002B31D0C9
:102A14007B685B6C786898472CE000BF000000205E
:102A2400B5814E1B7B68DB6B002B23D07B68DB6B93
:102A3400786898471EE07B681B681B6803F4807302
:102A4400002B0FD17B681B681A687B681B6822F017
:102A540010021A607B68012283F835207B6800220B
:102A640083F834207B68DB6B002B03D07B68DB6B43
:102A7400786898477B685B6D002B32D07B685B6D10
:102A840003F00103002B22D07B68052283F8352054
:102A94007B681B681A687B681B6822F001021A6055
:102AA400BB680133BB607A699A4207D37B681B68B1
:102AB4001B6803F00103002BF2D100E000BF7B6828
:102AC400012283F835207B68002283F834207B6858
:102AD400DB6C002B05D07B68DB6C7868984700E0E2
:102AE40000BF1837BD4680BD80B485B000AFF86024
:102AF400B9607A603B60FB681B681A68FB681B68F6
:102B040022F480221A60FB681B683A685A60FB68EA
:102B14009B68402B08D1FB681B687A689A60FB6845
:102B24001B68BA68DA6007E0FB681B68BA689A60D9
:102B3400FB681B687A68DA6000BF1437BD465DF82D
:102B4400047B704780B485B000AF78607B681B68F5
:102B5400DBB2103B144AA2FB03231B09FB60134A9C
:102B6400FB6813441B781A467B68DA65FB68032B01
:102B740009D97B681B6823F47F7323F003031A1DB0
:102B84007B689A6507E07B681B6823F47F7323F0F6
:102B940003037A6893657B689B6D18461437BD46BA
:102BA4005DF8047B704700BFABAAAAAA8855000849
:102BB40080B485B000AF78600023FB737B689B6AA8
:102BC400BB607B689B69002B1FD1BB68032B56D865
:102BD40001A252F823F000BFED2B0008FF2B0008E0
:102BE400ED2B0008832C00087B68DB6A03F08073FC
:102BF400002B46D00123FB7343E07B68DB6AB3F10F
:102C0400C07F40D10123FB733DE07B689B69B3F532
:102C1400005F21D1BB68032B37D801A252F823F0FF
:102C2400352C00083B2C0008352C00084D2C0008DE
:102C34000123FB7330E07B68DB6A03F08073002BB5
:102C440025D00123FB7322E07B68DB6AB3F1C07FEC
:102C54001FD10123FB731CE0BB68022B03D9BB68A3
:102C6400032B03D018E00123FB7315E07B68DB6AB8
:102C740003F08073002B0ED00123FB730BE000BF25
:102C84000AE000BF08E000BF06E000BF04E000BFA8
:102C940002E000BF00E000BFFB7B18461437BD46CE
:102CA4005DF8047B704700BF80B489B000AF7860E2
:102CB400396000237B6100233B610023BB61002357
:102CC400FB6159E10122FB6902FA03F37B613B6872
:102CD4001B687A6913403B613A697B699A4240F008
:102CE40048813B685B6803F00303012B05D03B6814
:102CF4005B6803F00303022B30D17B689B68BB61E4
:102D0400FB695B00032202FA03F3DB43BA69134055
:102D1400BB613B68DA68FB695B0002FA03F3BA69DA
:102D24001343BB617B68BA699A607B685B68BB616B
:102D34000122FB6902FA03F3DB43BA691340BB6166
:102D44003B685B681B0903F00102FB6902FA03F3A9
:102D5400BA691343BB617B68BA695A603B685B68B4
:102D640003F00303032B17D07B68DB68BB61FB69AB
:102D74005B00032202FA03F3DB43BA691340BB612D
:102D84003B689A68FB695B0002FA03F3BA69134370
:102D9400BB617B68BA69DA603B685B6803F0030374
:102DA400022B23D1FB69DA087B68083253F82230FE
:102DB400BB61FB6903F007039B000F2202FA03F3D4
:102DC400DB43BA691340BB613B681A69FB6903F0D2
:102DD40007039B0002FA03F3BA691343BB61FB695F
:102DE400DA087B680832B96943F822107B681B68EB
:102DF400BB61FB695B00032202FA03F3DB43BA699C
:102E04001340BB613B685B6803F00302FB695B0032
:102E140002FA03F3BA691343BB617B68BA691A60A7
:102E24003B685B6803F44033002B00F0A28000236E
:102E3400FB60574B5B6C564A43F480435364544BDA
:102E44005B6C03F48043FB60FB68524AFB699B089C
:102E5400023352F82330BB61FB6903F003039B0088
:102E64000F2202FA03F3DB43BA691340BB617B68A8
:102E7400494A934219D07B68484A934213D07B68ED
:102E8400474A93420DD07B68464A934207D07B68F9
:102E9400454A934201D1042308E0072306E00323B3
:102EA40004E0022302E0012300E00023FA6902F0B7
:102EB400030292009340BA691343BB613549FB692D
:102EC4009B080233BA6941F82320384B9B68BB61E5
:102ED4003B69DB43BA691340BB613B685B6803F43D
:102EE4008013002B03D0BA693B691343BB612F4A9B
:102EF400BB6993602D4BDB68BB613B69DB43BA69FB
:102F04001340BB613B685B6803F40013002B03D0E0
:102F1400BA693B691343BB61244ABB69D360234B41
:102F24005B68BB613B69DB43BA691340BB613B68C7
:102F34005B6803F40033002B03D0BA693B69134385
:102F4400BB611A4ABB695360184B1B68BB613B6980
:102F5400DB43BA691340BB613B685B6803F48033AD
:102F6400002B03D0BA693B691343BB610F4ABB69A9
:102F74001360FB690133FB61FB690F2B7FF6A2AE83
:102F840000BF00BF2437BD465DF8047B704700BF17
:102F940000380240003801400000024000040240B2
:102FA40000080240000C024000100240003C0140B6
:102FB40080B483B000AF78600B467B8013467B708F
:102FC4007B78002B03D07A887B689A6103E07B8846
:102FD4001A047B689A6100BF0C37BD465DF8047B18
:102FE400704780B485B000AF78600B467B807B6807
:102FF4005B69FB607A88FB6813401A04FB68D94359
:103004007B880B401A437B689A6100BF1437BD4626
:103014005DF8047B7047000080B582B000AF0346C2
:10302400FB80084B5A69FB881340002B06D0054AE5
:10303400FB885361FB881846FEF714FC00BF083771
:10304400BD4680BD003C014080B586B000AF7860CD
:103054007B68002B01D1012367E27B681B6803F0C6
:103064000103002B75D0884B9B6803F00C03042BE1
:103074000CD0854B9B6803F00C03082B12D1824BB8
:103084005B6803F48003B3F5800F0BD17E4B1B68A0
:1030940003F40033002B5BD07B685B68002B57D1B3
:1030A400012342E27B685B68B3F5803F06D1764B2F
:1030B4001B68754A43F4803313601DE07B685B68CA
:1030C400B3F5A02F0CD1704B1B686F4A43F48023D7
:1030D40013606D4B1B686C4A43F4803313600BE040
:1030E400694B1B68684A23F480331360664B1B6882
:1030F400654A23F4802313607B685B68002B13D03C
:10310400FFF7B0F8386108E0FFF7ACF802463B6916
:10311400D31A642B01D9032307E25B4B1B6803F426
:103124000033002BF0D014E0FFF79CF8386108E07E
:10313400FFF798F802463B69D31A642B01D903239D
:10314400F3E1514B1B6803F40033002BF0D100E092
:1031540000BF7B681B6803F00203002B63D04A4B5B
:103164009B6803F00C03002B0BD0474B9B6803F0C8
:103174000C03082B1CD1444B5B6803F48003002B25
:1031840016D1414B1B6803F00203002B05D07B686A
:10319400DB68012B01D00123C7E13B4B1B6823F003
:1031A400F8027B681B69DB00374913430B603AE084
:1031B4007B68DB68002B20D0344B01221A60FFF7B8
:1031C40051F8386108E0FFF74DF802463B69D31A1D
:1031D400022B01D90323A8E12B4B1B6803F0020344
:1031E400002BF0D0284B1B6823F0F8027B681B6986
:1031F400DB00254913430B6015E0244B00221A60C1
:10320400FFF730F8386108E0FFF72CF802463B6915
:10321400D31A022B01D9032387E11B4B1B6803F04C
:103224000203002BF0D17B681B6803F00803002B1A
:1032340036D07B685B69002B16D0154B01221A60CF
:10324400FFF710F8386108E0FFF70CF802463B6915
:10325400D31A022B01D9032367E10B4B5B6F03F0F5
:103264000203002BF0D01BE0094B00221A60FEF78A
:10327400F9FF38610EE0FEF7F5FF02463B69D31A09
:10328400022B07D9032350E10038024000004742D3
:10329400800E4742884B5B6F03F00203002BEAD198
:1032A4007B681B6803F00403002B00F09780002365
:1032B400FB75814B1B6C03F08053002B0FD1002353
:1032C400BB607D4B1B6C7C4A43F0805313647A4B88
:1032D4001B6C03F08053BB60BB680123FB75774B09
:1032E4001B6803F48073002B18D1744B1B68734A5A
:1032F40043F480731360FEF7B5FF386108E0FEF70E
:10330400B1FF02463B69D31A022B01D903230CE116
:103314006A4B1B6803F48073002BF0D07B689B68B6
:10332400012B06D1644B1B6F634A43F001031367FF
:103334001CE07B689B68052B0CD15F4B1B6F5E4ABE
:1033440043F0040313675C4B1B6F5B4A43F00103B8
:1033540013670BE0584B1B6F574A23F001031367A5
:10336400554B1B6F544A23F0040313677B689B6817
:10337400002B15D0FEF776FF38610AE0FEF772FFE6
:1033840002463B69D31A41F28832934201D903239E
:10339400CBE0494B1B6F03F00203002BEED014E08B
:1033A400FEF760FF38610AE0FEF75CFF02463B6906
:1033B400D31A41F28832934201D90323B5E03E4B3C
:1033C4001B6F03F00203002BEED1FB7D012B05D113
:1033D400394B1B6C384A23F0805313647B689B6918
:1033E400002B00F0A180344B9B6803F00C03082BE6
:1033F4005CD07B689B69022B41D1314B00221A605F
:10340400FEF730FF386108E0FEF72CFF02463B6907
:10341400D31A022B01D9032387E0274B1B6803F03F
:103424000073002BF0D17B68DA697B681B6A1A434E
:103434007B685B6A9B011A437B689B6A5B08013B60
:103444001B041A437B68DB6A1B061B4913434B604E
:103454001B4B01221A60FEF705FF386108E0FEF7F6
:1034640001FF02463B69D31A022B01D903235CE016
:10347400114B1B6803F00073002BF0D054E0104B89
:1034840000221A60FEF7EEFE386108E0FEF7EAFE5D
:1034940002463B69D31A022B01D9032345E0064BAC
:1034A4001B6803F00073002BF0D13DE07B689B693F
:1034B400012B07D1012338E000380240007000409E
:1034C400600047421B4B5B68FB607B689B69012B78
:1034D40028D0FB6803F480027B68DB699A4221D11F
:1034E400FB6803F03F027B681B6A9A421AD1FA68B0
:1034F40047F6C07313407A68526A9201934211D11D
:10350400FB6803F440327B689B6A5B08013B1B0445
:103514009A4207D1FB6803F070627B68DB6A1B0682
:103524009A4201D0012300E0002318461837BD4613
:1035340080BD00BF0038024080B584B000AF786021
:1035440039607B68002B01D10123CCE0684B1B68F8
:1035540003F007033A689A420CD9654B3A68D2B231
:103564001A70634B1B6803F007033A689A4201D050
:103574000123B8E07B681B6803F00203002B20D012
:103584007B681B6803F00403002B05D0594B9B6830
:10359400584A43F4E05393607B681B6803F00803C4
:1035A400002B05D0534B9B68524A43F4604393600D
:1035B400504B9B6823F0F0027B689B684D49134392
:1035C4008B607B681B6803F00103002B44D07B688D
:1035D4005B68012B07D1474B1B6803F40033002BB6
:1035E40019D101237FE07B685B68022B03D07B68E1
:1035F4005B68032B07D13F4B1B6803F00073002B60
:1036040009D101236FE03B4B1B6803F00203002B3D
:1036140001D1012367E0374B9B6823F003027B68E9
:103624005B68344913438B60FEF71CFEF8600AE0C4
:10363400FEF718FE0246FB68D31A41F28832934221
:1036440001D903234FE02B4B9B6803F00C027B68EA
:103654005B689B009A42EBD1254B1B6803F0070380
:103664003A689A420CD2224B3A68D2B21A70204B72
:103674001B6803F007033A689A4201D0012332E041
:103684007B681B6803F00403002B08D0194B9B686C
:1036940023F4E0527B68DB68164913438B607B6834
:1036A4001B6803F00803002B09D0124B9B6823F41A
:1036B40060427B681B69DB000E4913438B6000F09A
:1036C40021F802460B4B9B681B0903F00F030A49C0
:1036D400CB5C22FA03F3094A1360094B1B681846B2
:1036E400FEF77CFD002318461037BD4680BD00BFA1
:1036F400003C0240003802406C55000800000020E5
:103704000C0000202DE9B04F90B000AF00237B6384
:103714000023FB6300233B630023BB63594B9B687B
:1037240003F00C03082B0DD0082B00F2A180002B12
:1037340002D0042B03D09BE0534BBB639BE0534B61
:10374400BB6398E04F4B5B6803F03F037B634D4BD7
:103754005B6803F48003002B28D04A4B5B689B0909
:1037640000223B627A623B6AC3F308000021474BA4
:1037740003FB01F2002300FB03F31344434AA0FBC1
:103784000212FA620A46BA62FA6A1344FB627B6B5B
:103794000022BB61FA61D7E90623D7E90A01FCF7E5
:1037A40017FD02460B461346FB6353E0354B5B683B
:1037B4009B0900223B617A613B69C3F3080A4FF01D
:1037C400000B52465B464FF000004FF000015901D8
:1037D40041EAD261500102460B46B2EB0A0863EBA0
:1037E4000B094FF000024FF000034FEA891343EA3C
:1037F40098634FEA8812B2EB080463EB09054FF0B3
:1038040000024FF00003EB0043EA5473E200144655
:103814001D4614EB0A033B6045EB0B037B604FF042
:1038240000024FF00003D7E9004529468B022146E8
:1038340043EA915321468A02104619467B6B0022C3
:10384400BB60FA60D7E90223FCF7C2FC02460B46D0
:103854001346FB630B4B5B681B0C03F00303013340
:103864005B003B63FA6B3B6BB2FBF3F3BB6302E0BD
:10387400054BBB6300BFBB6B18464037BD46BDE874
:10388400B08F00BF003802400024F40040787D016E
:1038940080B582B000AF78607B68002B01D1012332
:1038A4007BE07B685B6A002B08D17B685B68B3F5BF
:1038B400827F09D07B680022DA6105E07B68002200
:1038C4001A617B6800225A617B6800229A627B68D5
:1038D40093F85130DBB2002B06D17B68002283F8C9
:1038E40050207868FDF7C2FD7B68022283F85120DE
:1038F4007B681B681A687B681B6822F040021A60A8
:103904007B685B6803F482727B689B6803F40443FE
:103914001A437B68DB6803F400631A437B681B6902
:1039240003F002031A437B685B6903F001031A4343
:103934007B689B6903F400731A437B68DB6903F0BB
:1039440038031A437B681B6A03F0800342EA0301CD
:103954007B689B6A03F400527B681B680A431A6005
:103964007B689B691B0C03F004017B685B6A03F0B2
:1039740010027B681B680A435A607B681B68DA691B
:103984007B681B6822F40062DA617B6800225A6556
:103994007B68012283F85120002318460837BD466E
:1039A40080BD80B588B000AFF860B9603B60134655
:1039B400FB80FEF757FCF861FB887B83FB6893F878
:1039C4005130DBB2012B01D002232AE1BB68002B6A
:1039D40002D0FB88002B01D1012322E1FB6893F87C
:1039E4005030012B01D102231BE1FB68012283F833
:1039F4005020FB68032283F85120FB6800225A659B
:103A0400FB68BA681A63FB68FA889A86FB68FA88C6
:103A1400DA86FB6800229A63FB6800229A87FB68B7
:103A24000022DA87FB6800225A64FB6800221A64C9
:103A3400FB689B68B3F5004F0FD1FB681B681A68DD
:103A4400FB681B6822F040021A60FB681B681A6856
:103A5400FB681B6842F480421A60FB681B681B68A1
:103A640003F04003402B07D0FB681B681A68FB680F
:103A74001B6842F040021A60FB68DB68B3F5006F14
:103A840052D1FB685B68002B02D07B8B012B45D1A4
:103A9400FB681B6B1A88FB681B68DA60FB681B6B8E
:103AA4009A1CFB681A63FB68DB8E9BB2013B9AB2DB
:103AB400FB68DA8632E0FB681B689B6803F002034C
:103AC400022B12D1FB681B6B1A88FB681B68DA6037
:103AD400FB681B6B9A1CFB681A63FB68DB8E9BB24A
:103AE400013B9AB2FB68DA8618E0FEF7BBFB02469C
:103AF400FB69D31A3A689A4203D83B68B3F1FF3F93
:103B040002D13B68002B09D1FB68012283F85120C4
:103B1400FB68002283F85020032382E0FB68DB8EDD
:103B24009BB2002BC7D153E0FB685B68002B02D02B
:103B34007B8B012B47D1FB681A6BFB681B680C332A
:103B440012781A70FB681B6B5A1CFB681A63FB68BB
:103B5400DB8E9BB2013B9AB2FB68DA8633E0FB68EA
:103B64001B689B6803F00203022B13D1FB681A6BDA
:103B7400FB681B680C3312781A70FB681B6B5A1CA9
:103B8400FB681A63FB68DB8E9BB2013B9AB2FB684D
:103B9400DA8618E0FEF766FB0246FB69D31A3A6838
:103BA4009A4203D83B68B3F1FF3F02D13B68002B34
:103BB40009D1FB68012283F85120FB68002283F8B5
:103BC400502003232DE0FB68DB8E9BB2002BC6D173
:103BD400FA693968F86800F0E7FF0346002B02D061
:103BE400FB6820225A65FB689B68002B0AD10023DE
:103BF4007B61FB681B68DB687B61FB681B689B68F7
:103C04007B617B69FB68012283F85120FB680022F9
:103C140083F85020FB685B6D002B01D0012300E08A
:103C2400002318462037BD4680BD80B588B002AF5A
:103C3400F860B9603B601346FB80FB6893F8513031
:103C4400DBB2012B01D0022304E1BB68002B02D0BC
:103C5400FB88002B01D10123FCE0FB685B68B3F512
:103C6400827F12D1FB689B68002B0ED1FB68042273
:103C740083F85120FA883B6800931346BA68B96800
:103C8400F86800F0EBF80346E4E0FEF7EBFA78613D
:103C9400FB6893F85030012B01D10223DAE0FB6872
:103CA400012283F85020FB68042283F85120FB682A
:103CB40000225A65FB68BA689A63FB68FA889A8797
:103CC400FB68FA88DA87FB6800221A63FB68002223
:103CD4009A86FB680022DA86FB6800221A64FB6875
:103CE40000225A64FB689B68B3F5004F0FD1FB6850
:103CF4001B681A68FB681B6822F040021A60FB68A4
:103D04001B681A68FB681B6822F480421A60FB680F
:103D14001B681B6803F04003402B07D0FB681B683B
:103D24001A68FB681B6842F040021A60FB68DB6893
:103D3400002B70D135E0FB681B689B6803F001031E
:103D4400012B15D1FB681B6803F10C02FB689B6B0C
:103D54001278D2B21A70FB689B6B5A1CFB689A6388
:103D6400FB68DB8F9BB2013B9AB2FB68DA8718E0F1
:103D7400FEF778FA02467B69D31A3A689A4203D866
:103D84003B68B3F1FF3F02D13B68002B09D1FB68CC
:103D9400012283F85120FB68002283F8502003237A
:103DA40058E0FB68DB8F9BB2002BC4D138E0FB6882
:103DB4001B689B6803F00103012B13D1FB681B688C
:103DC400DA68FB689B6B92B21A80FB689B6B9A1C47
:103DD400FB689A63FB68DB8F9BB2013B9AB2FB687A
:103DE400DA8718E0FEF73EFA02467B69D31A3A688E
:103DF4009A4203D83B68B3F1FF3F02D13B68002BE2
:103E040009D1FB68012283F85120FB68002283F862
:103E1400502003231EE0FB68DB8F9BB2002BC6D12E
:103E24007A693968F86800F05FFE0346002B02D017
:103E3400FB6820225A65FB68012283F85120FB6845
:103E4400002283F85020FB685B6D002B01D0012316
:103E540000E0002318461837BD4680BD80B58AB0FF
:103E640000AFF860B9607A607B8001237B62FEF763
:103E7400F9F93862FB6893F85130FB77FB685B68AB
:103E8400BB617B88FB82FB7F012B0CD0BB69B3F544
:103E9400827F06D1FB689B68002B02D1FB7F042B39
:103EA40001D002237FE1BB68002B05D07B68002B87
:103EB40002D07B88002B01D1012374E1FB6893F8C5
:103EC4005030012B01D102236DE1FB68012283F8FC
:103ED4005020FB6893F85130DBB2042B03D0FB680D
:103EE400052283F85120FB6800225A65FB687A6832
:103EF4009A63FB687A88DA87FB687A889A87FB6812
:103F0400BA681A63FB687A88DA86FB687A889A86C4
:103F1400FB6800221A64FB6800225A64FB681B6871
:103F24001B6803F04003402B07D0FB681B681A682A
:103F3400FB681B6842F040021A60FB68DB68B3F55B
:103F4400006F7ED1FB685B68002B02D0FB8A012BDB
:103F54006CD1FB681B6B1A88FB681B68DA60FB6812
:103F64001B6B9A1CFB681A63FB68DB8E9BB2013BDC
:103F74009AB2FB68DA8659E0FB681B689B6803F019
:103F84000203022B1BD1FB68DB8E9BB2002B16D0E5
:103F94007B6A012B13D1FB681B6B1A88FB681B68B7
:103FA400DA60FB681B6B9A1CFB681A63FB68DB8E88
:103FB4009BB2013B9AB2FB68DA8600237B62FB6802
:103FC4001B689B6803F00103012B19D1FB68DB8F8D
:103FD4009BB2002B14D0FB681B68DA68FB689B6BF0
:103FE40092B21A80FB689B6B9A1CFB689A63FB680D
:103FF400DB8F9BB2013B9AB2FB68DA8701237B62B9
:10400400FEF730F902463B6AD31A3A6B9A420DD84E
:104014003B6BB3F1FF3F09D0FB68012283F85120C9
:10402400FB68002283F850200323BCE0FB68DB8E8E
:104034009BB2002BA0D1FB68DB8F9BB2002B9BD1E2
:1040440082E0FB685B68002B02D0FB8A012B71D1F4
:10405400FB681A6BFB681B680C3312781A70FB68D8
:104064001B6B5A1CFB681A63FB68DB8E9BB2013B1B
:104074009AB2FB68DA865DE0FB681B689B6803F014
:104084000203022B1CD1FB68DB8E9BB2002B17D0E2
:104094007B6A012B14D1FB681A6BFB681B680C3319
:1040A40012781A70FB681B6B5A1CFB681A63FB6856
:1040B400DB8E9BB2013B9AB2FB68DA8600237B62FB
:1040C400FB681B689B6803F00103012B19D1FB6893
:1040D400DB8F9BB2002B14D0FB681B68DA68FB688B
:1040E4009B6BD2B21A70FB689B6B5A1CFB689A6379
:1040F400FB68DB8F9BB2013B9AB2FB68DA87012332
:104104007B62FEF7AFF802463B6AD31A3A6B9A42D7
:1041140003D83B6BB3F1FF3F02D13B6B002B09D1BA
:10412400FB68012283F85120FB68002283F85020A9
:10413400032338E0FB68DB8E9BB2002B9CD1FB6829
:10414400DB8F9BB2002B97D13A6A396BF86800F089
:104154002BFD0346002B08D0FB6820225A65FB6820
:10416400002283F8502001231DE0FB689B68002B8C
:104174000AD100233B61FB681B68DB683B61FB6879
:104184001B689B683B613B69FB68012283F85120F3
:10419400FB68002283F85020FB685B6D002B01D084
:1041A400012300E0002318462837BD4680BD0000E7
:1041B40080B584B000AFF860B9601346FB80FB683B
:1041C40093F85130DBB2012B01D0022397E0BB6896
:1041D400002B02D0FB88002B01D101238FE0FB6868
:1041E40093F85030012B01D1022388E0FB680122AF
:1041F40083F85020FB68032283F85120FB680022D7
:104204005A65FB68BA681A63FB68FA889A86FB6881
:10421400FA88DA86FB6800229A63FB6800225A64F3
:10422400FB6800221A64FB6800229A87FB6800225C
:10423400DA87FB689B68B3F5004F0FD1FB681B68F6
:104244001A68FB681B6822F040021A60FB681B684E
:104254001A68FB681B6842F480421A60FB689B6C16
:10426400294A1A64FB689B6C284ADA63FB689B6CD6
:10427400274ADA64FB689B6C00221A65FB68986C19
:10428400FB681B6B1946FB681B680C331A46FB68FA
:10429400DB8E9BB2FEF7D6F90346002B0BD0FB68EE
:1042A4005B6D43F01002FB685A65FB68002283F8DB
:1042B4005020012323E0FB681B681B6803F04003C4
:1042C400402B07D0FB681B681A68FB681B6842F028
:1042D40040021A60FB68002283F85020FB681B68C8
:1042E4005A68FB681B6842F020025A60FB681B682E
:1042F4005A68FB681B6842F002025A6000231846A1
:104304001037BD4680BD00BF474900086747000815
:104314009B49000880B584B000AFF860B9601346CB
:10432400FB80FB6893F85130DBB2012B01D00223F0
:10433400A9E0BB68002B02D0FB88002B01D101232C
:10434400A1E0FB689B68002B10D1FB685B68B3F5A8
:10435400827F0BD1FB68042283F85120FB88BA6862
:10436400B968F86800F09AF803468CE0FB6893F8A3
:104374005030012B01D1022385E0FB68012283F830
:104384005020FB68042283F85120FB6800225A6500
:10439400FB68BA689A63FB68FA889A87FB68FA88AC
:1043A400DA87FB6800221A64FB6800225A64FB68FF
:1043B40000229A86FB680022DA86FB689B68B3F5C4
:1043C400004F0FD1FB681B681A68FB681B6822F05A
:1043D40040021A60FB681B681A68FB681B6822F4B9
:1043E40080421A60FB68DB6C294A1A64FB68DB6C48
:1043F400284ADA63FB68DB6C274ADA64FB68DB6C07
:1044040000221A65FB68D86CFB681B680C331946DC
:10441400FB689B6B1A46FB68DB8F9BB2FEF712F9B5
:104424000346002B0BD0FB685B6D43F01002FB6866
:104434005A65FB68002283F85020012323E0FB68BF
:104444001B681B6803F04003402B07D0FB681B6804
:104454001A68FB681B6842F040021A60FB6800227D
:1044640083F85020FB681B685A68FB681B6842F09D
:1044740020025A60FB681B685A68FB681B6842F09C
:1044840001025A60002318461037BD4680BD00BFA4
:10449400634900080F4800089B49000880B586B0AE
:1044A40000AFF860B9607A607B80FB6893F85130A4
:1044B400FB75FB685B683B61FB7D012B0CD03B69A2
:1044C400B3F5827F06D1FB689B68002B02D1FB7D8C
:1044D400042B01D00223CFE0BB68002B05D07B68FE
:1044E400002B02D07B88002B01D10123C4E0FB68A0
:1044F40093F85030012B01D10223BDE0FB68012267
:1045040083F85020FB6893F85130DBB2042B03D0BE
:10451400FB68052283F85120FB6800225A65FB687A
:10452400BA681A63FB687A889A86FB687A88DA869E
:10453400FB687A689A63FB687A889A87FB687A884A
:10454400DA87FB6800221A64FB6800225A64FB685D
:1045540093F85130DBB2042B08D1FB68DB6C484A7A
:104564001A64FB68DB6C474ADA6307E0FB68DB6CC0
:10457400454A1A64FB68DB6C444ADA63FB68DB6C0B
:10458400434ADA64FB68DB6C00221A65FB68D86C6A
:10459400FB681B680C331946FB689B6B1A46FB6867
:1045A400DB8F9BB2FEF74EF80346002B0BD0FB6863
:1045B4005B6D43F01002FB685A65FB68002283F8C8
:1045C4005020012358E0FB681B685A68FB681B688D
:1045D40042F001025A60FB689B6C00221A64FB687B
:1045E4009B6C0022DA63FB689B6C0022DA64FB6834
:1045F4009B6C00221A65FB68986CFB681B6B194660
:10460400FB681B680C331A46FB68DB8E9BB2FEF713
:1046140019F80346002B0BD0FB685B6D43F01002C6
:10462400FB685A65FB68002283F85020012323E0CD
:10463400FB681B681B6803F04003402B07D0FB6832
:104644001B681A68FB681B6842F040021A60FB682A
:10465400002283F85020FB681B685A68FB681B68BB
:1046640042F020025A60FB681B685A68FB681B68AA
:1046740042F002025A60002318461837BD4680BD36
:10468400634900080F4800087F490008B74800083C
:104694009B49000880B584B000AF78600023FB73A9
:1046A4007B689B6C002B0FD07B689B6C1846FEF7D5
:1046B40021F80346002B07D07B685B6D43F01002A2
:1046C4007B685A650123FB737B68DB6C002B0FD07E
:1046D4007B68DB6C1846FEF70DF80346002B07D009
:1046E4007B685B6D43F010027B685A650123FB73A2
:1046F4007B681B685A687B681B6822F003025A6057
:104704007B68012283F85120FB7B18461037BD4695
:1047140080BD80B483B000AF786000BF0C37BD4665
:104724005DF8047B704780B483B000AF786000BF4D
:104734000C37BD465DF8047B704780B483B000AF8E
:10474400786000BF0C37BD465DF8047B704780B4C9
:1047540083B000AF786000BF0C37BD465DF8047BC2
:10476400704780B586B000AF78607B689B6B7B61D7
:10477400FDF778FD38617B681B681B6803F4807360
:10478400B3F5807F3BD07B691B685A687B691B68E3
:1047940022F020025A607B691B685A687B691B6897
:1047A40022F002025A603A696421786900F0FCF947
:1047B4000346002B05D07B695B6D43F020027B69C7
:1047C4005A657B699B68002B0AD10023FB607B69D7
:1047D4001B68DB68FB607B691B689B68FB60FB688C
:1047E4007B690022DA867B69012283F851207B6988
:1047F4005B6D002B03D07869FDF760F802E07869FF
:10480400FDF74AF81837BD4680BD80B584B000AFC7
:1048140078607B689B6BFB60FDF724FDB8607B6868
:104824001B681B6803F48073B3F5807F3BD0FB687F
:104834001B685A68FB681B6822F020025A60FB68F8
:104844009B68002B0DD1FB685B68B3F5827F08D1B0
:10485400FB681B685A68FB681B6822F003025A60F5
:1048640007E0FB681B685A68FB681B6822F00102BA
:104874005A60BA686421F86800F036F90346002BE0
:1048840002D0FB6820225A65FB680022DA87FB68A5
:10489400012283F85120FB685B6D002B03D0F8687C
:1048A400FDF70CF802E0F868FCF7EAFF1037BD46A4
:1048B40080BD80B584B000AF78607B689B6BFB6083
:1048C400FDF7D0FCB8607B681B681B6803F4807339
:1048D400B3F5807F2FD0FB681B685A68FB681B68A0
:1048E40022F020025A60BA686421F86800F05CF98A
:1048F4000346002B05D0FB685B6D43F02002FB6888
:104904005A65FB681B685A68FB681B6822F003023F
:104914005A60FB680022DA86FB680022DA87FB68AB
:10492400012283F85120FB685B6D002B03D0F868EB
:10493400FCF7C4FF02E0F868FFF7EBFE1037BD4652
:1049440080BD80B584B000AF78607B689B6BFB60F2
:10495400F868FFF7E8FE00BF1037BD4680BD80B59C
:1049640084B000AF78607B689B6BFB60F868FFF7EE
:10497400E4FE00BF1037BD4680BD80B584B000AFF3
:1049840078607B689B6BFB60F868FFF7E0FE00BF14
:104994001037BD4680BD80B584B000AF78607B68B9
:1049A4009B6BFB60FB681B685A68FB681B6822F002
:1049B40003025A60FB685B6D43F01002FB685A65A2
:1049C400FB68012283F85120F868FCF777FF00BFE9
:1049D4001037BD4680BD000080B588B000AFF860D8
:1049E400B9603B601346FB71FDF73CFC0246BB6AB1
:1049F4009B1A3A681344FB61FDF734FCB861394BE8
:104A04001B685B011B0DFA6902FB03F37B6155E034
:104A14003B68B3F1FF3F51D0FDF724FC0246BB696C
:104A2400D31AFA699A4202D9FB69002B3DD1FB687B
:104A34001B685A68FB681B6822F0E0025A60FB6836
:104A44005B68B3F5827F11D1FB689B68B3F5004FB7
:104A540004D0FB689B68B3F5806F07D1FB681B68C3
:104A64001A68FB681B6822F040021A60FB689B6AA4
:104A7400B3F5005F0FD1FB681B681A68FB681B68FD
:104A840022F400521A60FB681B681A68FB681B68F2
:104A940042F400521A60FB68012283F85120FB683B
:104AA400002283F85020032318E07B69002B02D1F5
:104AB4000023FB6102E07B69013B7B61FB681B68AF
:104AC4009A68BB681340BA689A420CBF012300235A
:104AD400DBB21A46FB799A429AD100231846203752
:104AE400BD4680BD0000002080B588B002AFF860EC
:104AF400B9607A60FB685B68B3F5827F11D1FB68AB
:104B04009B68B3F5004F04D0FB689B68B3F5806FD6
:104B140007D1FB681B681A68FB681B6822F0400217
:104B24001A60FB685B68B3F5827F24D1FB689B68DD
:104B3400B3F5806F12D07B680093BB68002280219C
:104B4400F868FFF749FF0346002B27D0FB685B6D2D
:104B540043F02002FB685A65032320E000237B61B5
:104B6400FB681B68DB687B61FB681B689B687B6177
:104B74007B69002313E07B680093BB68002201215A
:104B8400F868FFF729FF0346002B07D0FB685B6D2D
:104B940043F02002FB685A65032300E00023184613
:104BA4001837BD4680BD000080B588B002AFF860FC
:104BB400B9607A607B680093BB6801220221F868BF
:104BC400FFF70AFF0346002B07D0FB685B6D43F039
:104BD4002002FB685A65032332E01B4B1B681B4A07
:104BE400A2FB03235B0D4FF47A7202FB03F37B6198
:104BF400FB685B68B3F5827F12D17B680093BB6866
:104C040000228021F868FFF7E7FE0346002B16D048
:104C1400FB685B6D43F02002FB685A6503230FE0D9
:104C24007B69002B0AD07B69013B7B61FB681B68B5
:104C34009B6803F08003802BF2D000E000BF0023C8
:104C440018461837BD4680BD00000020819F5E16BF
:104C540080B582B000AF78607B68002B01D101235E
:104C640041E07B6893F83D30DBB2002B06D17B68D2
:104C7400002283F83C207868FCF760FD7B68022200
:104C840083F83D207B681A687B6804331946104614
:104C940000F070FA7B68012283F846207B680122C9
:104CA40083F83E207B68012283F83F207B68012241
:104CB40083F840207B68012283F841207B6801222D
:104CC40083F842207B68012283F843207B68012219
:104CD40083F844207B68012283F845207B68012205
:104CE40083F83D20002318460837BD4680BD0000E8
:104CF40080B485B000AF78607B6893F83D30DBB258
:104D0400012B01D0012344E07B68022283F83D207B
:104D14007B681B68DA687B681B6842F00102DA6012
:104D24007B681B681E4A934218D07B681B68B3F1EA
:104D3400804F13D07B681B681A4A93420ED07B685D
:104D44001B68194A934209D07B681B68174A93422F
:104D540004D07B681B68164A934211D17B681B6898
:104D64009B6803F00703FB60FB68062B10D07B688D
:104D74001B681A687B681B6842F001021A6007E02E
:104D84007B681B681A687B681B6842F001021A6022
:104D9400002318461437BD465DF8047B704700BFF6
:104DA400000001400004004000080040000C0040E6
:104DB4000040014080B584B000AF78607B681B6818
:104DC400DB68FB607B681B681B69BB60BB6803F026
:104DD4000203002B20D0FB6803F00203002B1BD03E
:104DE4007B681B686FF002021A617B6801221A77E4
:104DF4007B681B689B6903F00303002B03D078686E
:104E040000F099F905E0786800F08BF9786800F013
:104E14009CF97B6800221A77BB6803F00403002B1B
:104E240020D0FB6803F00403002B1BD07B681B68B5
:104E34006FF004021A617B6802221A777B681B6890
:104E44009B6903F44073002B03D0786800F073F976
:104E540005E0786800F065F9786800F076F97B6819
:104E640000221A77BB6803F00803002B20D0FB68EC
:104E740003F00803002B1BD07B681B686FF008024B
:104E84001A617B6804221A777B681B68DB6903F06C
:104E94000303002B03D0786800F04DF905E078682F
:104EA40000F03FF9786800F050F97B6800221A7727
:104EB400BB6803F01003002B20D0FB6803F0100341
:104EC400002B1BD07B681B686FF010021A617B6893
:104ED40008221A777B681B68DB6903F44073002B94
:104EE40003D0786800F027F905E0786800F019F934
:104EF400786800F02AF97B6800221A77BB6803F00F
:104F04000103002B0CD0FB6803F00103002B07D036
:104F14007B681B686FF001021A617868FCF793FCE8
:104F2400BB6803F08003002B0CD0FB6803F0800304
:104F3400002B07D07B681B686FF080021A617868C9
:104F440000F0B0FABB6803F04003002B0CD0FB6800
:104F540003F04003002B07D07B681B686FF040020E
:104F64001A61786800F0FBF8BB6803F02003002B9B
:104F74000CD0FB6803F02003002B07D07B681B6870
:104F84006FF020021A61786800F082FA00BF1037CF
:104F9400BD4680BD80B584B000AF78603960002321
:104FA400FB737B6893F83C30012B01D10223B4E0FE
:104FB4007B68012283F83C207B68022283F83D2031
:104FC4007B681B689B68BB60BB6823F07703BB608E
:104FD400BB6823F47F43BB607B681B68BA689A6034
:104FE4003B681B68B3F5005F3ED0B3F5005F00F289
:104FF4008780B3F5805F00F08680B3F5805F7FD84B
:10500400702B1AD0702B7BD8602B50D0602B77D8A4
:10501400502B3CD0502B73D8402B58D0402B6FD8FA
:10502400302B64D0302B6BD8202B60D0202B67D84A
:10503400002B5CD0102B5AD062E07B6818683B6868
:1050440099683B685A683B68DB6800F093F97B68B1
:105054001B689B68BB60BB6843F07703BB607B68DD
:105064001B68BA689A604FE07B6818683B68996867
:105074003B685A683B68DB6800F07CF97B681B6816
:105084009A687B681B6842F480429A603CE07B68C3
:1050940018683B6859683B68DB681A4600F0F0F80A
:1050A4007B681B685021184600F049F92CE07B68A6
:1050B40018683B6859683B68DB681A4600F00FF9CA
:1050C4007B681B686021184600F039F91CE07B6896
:1050D40018683B6859683B68DB681A4600F0D0F8EA
:1050E4007B681B684021184600F029F90CE07B68B6
:1050F4001A683B681B681946104600F020F903E063
:105104000123FB7300E000BF7B68012283F83D208C
:105114007B68002283F83C20FB7B18461037BD4691
:1051240080BD80B483B000AF786000BF0C37BD464B
:105134005DF8047B704780B483B000AF786000BF33
:105144000C37BD465DF8047B704780B483B000AF74
:10515400786000BF0C37BD465DF8047B704780B4AF
:1051640083B000AF786000BF0C37BD465DF8047BA8
:105174007047000080B485B000AF786039607B6808
:105184001B68FB607B68374A93420FD07B68B3F19E
:10519400804F0BD07B68344A934207D07B68334AF4
:1051A400934203D07B68324A934208D1FB6823F0D0
:1051B4007003FB603B685B68FA681343FB607B68C1
:1051C400284A93421BD07B68B3F1804F17D07B6889
:1051D400254A934213D07B68244A93420FD07B68BC
:1051E400234A93420BD07B68224A934207D07B68C0
:1051F400214A934203D07B68204A934208D1FB683A
:1052040023F44073FB603B68DB68FA681343FB607C
:10521400FB6823F080023B685B691343FB603B68D7
:105224009A687B68DA623B681A687B689A627B6872
:105234000C4A934203D13B681A697B681A637B6802
:105244001B6843F004027B681A607B6801225A6180
:105254007B68FA681A6000BF1437BD465DF8047BAA
:10526400704700BF000001400004004000080040F7
:10527400000C00400040014000440140004801404F
:1052840080B487B000AFF860B9607A60FB681B6ACD
:105294007B61FB681B6A23F00102FB681A62FB68EE
:1052A4009B693B613B6923F0F0033B617B681B0115
:1052B4003A6913433B617B6923F00A037B617A6992
:1052C400BB6813437B61FB683A699A61FB687A693E
:1052D4001A6200BF1C37BD465DF8047B704780B47A
:1052E40087B000AFF860B9607A60FB681B6A7B61C5
:1052F400FB681B6A23F01002FB681A62FB689B6957
:105304003B613B6923F470433B617B681B033A694F
:1053140013433B617B6923F0A0037B61BB681B01E2
:105324007A6913437B61FB683A699A61FB687A691D
:105334001A6200BF1C37BD465DF8047B704780B419
:1053440085B000AF786039607B689B68FB60FB6860
:1053540023F07003FB603A68FB68134343F00703D0
:10536400FB607B68FA689A6000BF1437BD465DF83D
:10537400047B704780B487B000AFF860B9607A608E
:105384003B60FB689B687B617B6923F47F437B61A3
:105394003B681A027B681A43BB6813437A69134358
:1053A4007B61FB687A699A6000BF1C37BD465DF873
:1053B400047B704780B485B000AF786039607B6847
:1053C40093F83C30012B01D1022350E07B68012289
:1053D40083F83C207B68022283F83D207B681B68AD
:1053E4005B68FB607B681B689B68BB60FB6823F0A1
:1053F4007003FB603B681B68FA681343FB607B68BF
:105404001B68FA685A607B681B681C4A934218D070
:105414007B681B68B3F1804F13D07B681B68184A04
:1054240093420ED07B681B68164A934209D07B686E
:105434001B68154A934204D07B681B68134A934245
:105444000CD1BB6823F08003BB603B685B68BA681F
:105454001343BB607B681B68BA689A607B6801224F
:1054640083F83D207B68002283F83C200023184603
:105474001437BD465DF8047B704700BF000001404F
:105484000004004000080040000C004000400140BF
:1054940080B483B000AF786000BF0C37BD465DF8C0
:1054A400047B704780B483B000AF786000BF0C37D2
:1054B400BD465DF8047B704702440346934200D125
:1054C400704703F8011BF9E770B50D4D0D4C641BD3
:1054D400A4100026A64209D10B4D0C4C00F026F86E
:1054E400641BA4100026A64205D170BD55F8043BE8
:1054F40098470136EEE755F8043B98470136F2E742
:105504009855000898550008985500089C550008BF
:105514000A44914200F1FF3300D1704710B511F8ED
:10552400014B03F8014F9142F9D110BDF8B500BF0A
:10553400F8BC08BC9E467047F8B500BFF8BC08BC70
:045544009E467047C8
:105548000008DC112233C0A80114FFFFFF00C0A827
:105558000101C0A801FF8A1389130000FFFFFFFFA4
:10556800FFFF00000000000000000000010203042B
:105578000607080900010C200002080000020C10B0
:085588000006101600061016C3
:0855900074ACFF7F0100000074
:04559800B90100084D
:04559C00950100086D
:1055A0000024F40000240C000000000010000000A3
:0455B00001000000F6
:040000050800214985
:00000001FF
